:020000040800F2
:10000000C80600208901000891010008930100083A
:100010009501000897010008990100080000000000
:100020000000000000000000000000009B0100082C
:100030009D010008000000009F010008A1010008C8
:10004000A3010008A3010008A3010008A301000800
:10005000A3010008A3010008A3010008A3010008F0
:10006000A3010008A3010008A3010008A3010008E0
:10007000A3010008A3010008A3010008A3010008D0
:10008000A3010008A3010008A3010008A3010008C0
:10009000A3010008A3010008A3010008A3010008B0
:1000A000A3010008A3010008A3010008A3010008A0
:1000B000A3010008A3010008A3010008A301000890
:1000C000A3010008A3010008A3010008A301000880
:1000D000A3010008A3010008A3010008A301000870
:1000E000A3010008A3010008A301000800F002F822
:1000F00000F03AF80AA090E8000C82448344AAF188
:100100000107DA4501D100F02FF8AFF2090EBAE885
:100110000F0013F0010F18BFFB1A43F0010318473B
:100120005C1300007C130000103A24BF78C878C12B
:10013000FAD8520724BF30C830C144BF04680C60ED
:10014000704700000023002400250026103A28BF35
:1001500078C1FBD8520728BF30C148BF0B60704739
:100160001FB51FBD10B510BD00F031F81146FFF7E7
:10017000F7FF00F08FFC00F04FF803B4FFF7F2FF39
:1001800003BC00F057F800000948804709480047C1
:10019000FEE7FEE7FEE7FEE7FEE7FEE7FEE7FEE737
:1001A000FEE7FEE704480549054A064B7047000094
:1001B00071080008ED000008C8000020C8060020F3
:1001C000C8020020C802002070477047704775467B
:1001D00000F02CF8AE4605006946534620F00700B3
:1001E000854618B020B5FFF7DDFFBDE820404FF091
:1001F00000064FF000074FF000084FF0000BAC4630
:10020000ACE8C009ACE8C009ACE8C009ACE8C0097A
:1002100021F007018D46704710B50446AFF300800A
:100220002046BDE81040FFF7A8BF00000048704717
:100230001000002001491820ABBEFEE72600020096
:100240007047000080B592B000F02CF9ADF8460080
:10025000BDF8461041F29410401A1090109800F02A
:100260009BFC109840F27C01C2F2000102910860F0
:1002700005200090002100F085FB0146009840F227
:100280007402C2F2000203921160109940F2B002AF
:10029000C2F2000201921268891A40F27002C2F2A0
:1002A000000207921160012100F06CFB019A0146E7
:1002B000029840F28003C2F200030A931960109979
:1002C0001160006800F080FF01460398059140F23C
:1002D0000801C2F2000109680491006800F074FF8F
:1002E00040F20401C2F20001096800F085FF0499A0
:1002F00002460598069200F07FFF069900F0BCFECA
:10030000014607980891006800F05EFF40F2000186
:10031000C2F20001096800F06FFF089900F0ACFE1E
:1003200000F036FF0F900F98163000F04DFF014699
:100330000A980991006800F047FF40F27801C2F284
:1003400000010B91096800F057FF0146099801F080
:100350001FF800F01DFF0E900F98C0F1160000F07E
:1003600033FF01460A980C91006800F02DFF0B99AD
:10037000096800F041FF01460C9801F009F800F00F
:1003800007FF0D900E98652803DBFFE764200E90B1
:10039000FFE70D98652803DBFFE764200D90FFE77A
:1003A0000D980E9900F02CFB12B080BD41F218019F
:1003B000C4F20201086840F604021043086040F6E7
:1003C0000401C4F20101086840F0030008600868F5
:1003D00040F008000860086820F004000860086821
:1003E00040F030000860086840F08000086008684D
:1003F00020F040000860086840F440700860086819
:1004000040F400600860086820F4806008600868B4
:1004100040F440500860086840F4004008600868F4
:1004200020F48040086042F62841C4F2010140F205
:10043000C620088042F62C41C4F2010164200880E5
:1004400042F60041C4F20101088840F00100088032
:1004500042F62041C4F20101088841F21112104312
:10046000088042F61841C4F20101088846F2600291
:100470001043088042F61C41C4F201010888104371
:10048000088042F64441C4F20101088840F400406B
:1004900008800421C4F20101086820F0C00008604F
:1004A0007047000080B58CB040F60001C4F2010135
:1004B0000091086840F033300860086820F0CC30C4
:1004C000086040F60C01C4F2010108684FF0FF30EB
:1004D00008600C2000F040FA0099086820F03330E2
:1004E0000860086820F0CC300860086840F0883068
:1004F00008600620019000F013FA019900200B908B
:1005000001220A92022209920322089204220792EF
:100510000522069205910721049140F2C001C2F222
:10052000000108600390029040F60800C4F2010048
:1005300000680499C840C007B0B1FFE740F2C001AD
:10054000C2F20001086840F001000860039800F55D
:100550007A70039002980130029040F2B401C2F226
:10056000000101200860FFE740F60800C4F2010026
:1005700000680599C840C00780B1FFE740F2C0019C
:10058000C2F20001086840F010000860039800F50E
:10059000FA600390029801300290FFE740F60800ED
:1005A000C4F2010000680699C840C00780B1FFE7A7
:1005B00040F2C001C2F20001086840F48070086097
:1005C000039800F6B8300390029801300290FFE7DC
:1005D00040F60800C4F2010000680799C840C0074F
:1005E00080B1FFE740F2C001C2F20001086840F4A8
:1005F00080500860039800F57A60039002980130FB
:100600000290FFE740F60800C4F201000068089974
:10061000C840C00788B1FFE740F2C001C2F2000144
:10062000086840F480300860039841F2883108443B
:100630000390029801300290FFE740F60800C4F2F0
:10064000010000680999C840C00788B1FFE740F27F
:10065000C001C2F20001086840F4801008600398ED
:1006600041F2707108440390029801300290FFE754
:1006700040F60800C4F2010000680A99C840C007AB
:1006800088B1FFE740F2C001C2F20001086840F003
:1006900080700860039841F658310844039002982E
:1006A00001300290FFE740F60800C4F20100006844
:1006B0000B99C840C007B0B1FFE740F2C001C2F2D9
:1006C0000001086840F080500860039800F5FA5077
:1006D000039002980130029040F2B401C2F200018E
:1006E00000200860FFE740F60041C4F201010868FD
:1006F00000200860029940F28400C2F2000001600C
:100700000399029A91FBF2F140F2BC02C2F200029C
:100710001160006840B9FFE740F2B801C2F2000181
:1007200008680130086006E040F2B801C2F200013A
:1007300000200860FFE70398029990FBF1F00CB0ED
:1007400080BD000080B500F001F880BD84B00020BD
:100750000390029041F20001C4F20201086840F4E3
:1007600080300860FFE741F20000C4F20200006838
:1007700000F400300290039801300390FFE70299E3
:100780000020019039B9FFE70398B0F5A06018BFC9
:1007900001200190FFE70198C0070028E3D1FFE79F
:1007A00041F20000C4F2020000688003002803D573
:1007B000FFE70120029002E000200290FFE702988C
:1007C000012851D1FFE742F20001C4F2020108689A
:1007D00040F010000860086820F007000860086812
:1007E00040F00200086041F20401C4F202010091ED
:1007F0000868086008680860086840F4806008605D
:10080000086820F47C100860086840F4E81008606C
:1008100041F20001C4F20201086840F080700860F3
:10082000FFE741F20000C4F20200006880010028E6
:1008300001D4FFE7F5E741F20401C4F202010868C0
:1008400020F003000860086840F002000860FFE73D
:1008500041F20400C4F20200006800F00C00082815
:1008600001D0FFE7F4E700E0FFE704B070470000C5
:1008700080B541F20002C4F20202106840F00100AB
:10088000106041F20401C4F2020108680023CFF6AF
:10089000FF031840086010684FF6FF73CFF6F66349
:1008A00018401060106820F480201060086820F460
:1008B000FE00086041F20801C4F202014FF41F007B
:1008C0000860FFF73FFF4EF60851CEF200014FF0EF
:1008D0000060086080BD000041F21C01C4F202010A
:1008E000086840F0010008602C21C4F200014FF6B6
:1008F000FE7008802821C4F20001472008804FF0D4
:100900008041088840F001000880FFE71020C4F211
:1009100000000088C00708B9FFE7F7E7704700004C
:1009200080B582B0ADF806000020ADF80400FFE706
:10093000BDF80400BDF8061088420BDAFFE74FF45B
:100940007A7000F009F8FFE7BDF804000130ADF857
:100950000400EDE702B080BD81B0ADF802002421B3
:10096000C4F2000100200880FFE72420C4F2000048
:100970000088BDF80210884201DAFFE7F5E701B010
:100980007047000084B00390029100200190009015
:10099000FFE70098039988422EDAFFE702980138B2
:1009A000B0FA80F04009009A40F28801C2F20001DA
:1009B00051F822200021002A48BF012108420BD013
:1009C000FFE7009940F28800C2F2000050F82110C1
:1009D0000198401A01900AE0009940F28800C2F2A2
:1009E000000050F82110019808440190FFE7FFE74C
:1009F000009801300090CCE7019804B070470000E7
:100A000080B584B00390029140F28400C2F20000ED
:100A1000006818B9FFE700F0E1F80EE0039800F075
:100A20009EF900900191029800F099F90246009811
:100A30000B46019900F03EF8FFE704B080BD0000CE
:100A400041F20001C4F20201086840F001000860B0
:100A5000FFE741F20000C4F20200006880070028AE
:100A600001D4FFE7F5E741F20401C4F2020108688E
:100A700020F00300086008680860FFE741F2040006
:100A8000C4F20200006810F00C0F01D0FFE7F5E798
:100A90007047000080B582B000200190FFF7D0FFC2
:100AA000FFF71AFFFFF782FCFFF7FCFCFFE7FFF7F9
:100AB000C9FBFCE780B586B00591049003930292D0
:100AC0000298039900231A4600F04DFBA8B9FFE7EE
:100AD00042F63440C4F201000022028002980399D9
:100AE0000023C4F2240300F0C9F900F00BF942F628
:100AF0003841C4F20101088017E0029803990022EE
:100B000001920023C4F2240300F0B8F900F0FAF8CF
:100B10000146019842F63442C4F20102118042F6C5
:100B20003841C4F201010880FFE7049805990023C9
:100B30001A4600F018FBA8B9FFE742F63C40C4F2A1
:100B4000010000220280049805990023C4F22403C6
:100B500000F094F900F0D6F842F64041C4F20101E9
:100B6000088017E004980599002200920023C4F23F
:100B7000240300F083F900F0C5F80146009842F61E
:100B80003C42C4F20102118042F64041C4F201012C
:100B90000880FFE706B080BD82B001900920009078
:100BA000FFE70098012810DBFFE7009A40F2880178
:100BB000C2F2000101EB820050F8040C41F822005F
:100BC000FFE7009801380090EBE7019840F28801B8
:100BD000C2F20001086002B07047000080B540F228
:100BE000B800C2F20000006818281FDCFFE740F2DE
:100BF000B400C2F20000006801280BD1FFE7002119
:100C0000CCF2340100220023C4F259031046FFF74E
:100C100051FF0AE00021C4F2590100220023CCF266
:100C200034031046FFF746FFFFE722E040F2B4002E
:100C3000C2F20000006801280DD1FFE748F2000170
:100C4000CCF24A01002248F20003C4F251031046DC
:100C5000FFF730FF0CE048F20001C4F2510100221E
:100C600048F20003CCF24A031046FFF723FFFFE7E8
:100C7000FFE780BD491058BFC1F140415B1058BF2C
:100C8000C3F140438B42EFF30080704751EA030CFD
:100C900017D41CF5801F58BFBCF5801F00F10680DB
:100CA000994218BF704708BF9042704707D711F5A7
:100CB000801F58BF13F5801F19D49942704789428D
:100CC00070471CF5801F08D5BCF5801FF7D58B42F7
:100CD00018BF704708BF824270474FF4001C1CEBDE
:100CE000410F38BF1CEB430F01D28B42704770B5E8
:100CF00000F06EF9922449004FF000514FF08053FC
:100D0000FFF7B8BF4FEA1153A3F58063D3F11E0379
:100D1000A8BFD3F1200C08DB4FF0004242EAC12209
:100D200052EA505232FA03F0704709420BD4102BAA
:100D3000C4BF0020704703F5787CBCF1FF3F05D0AD
:100D40004FF0FF3070474FF00000704770B500F073
:100D50003FF900BF4992248000207047F0E710F06F
:100D6000004248BF4042B0FA80F310FA03F10AD0C3
:100D7000C3F11D0303F5806302EB03524FEA4150B8
:100D800002EBD12170474FF00000704751EA030C8D
:100D900017D41CF5801F58BFBCF5801F00F10680DA
:100DA000994218BF704708BF9042704707D711F5A6
:100DB000801F58BF13F5801F19D49942704789428C
:100DC00070471CF5801F08D5BCF5801FF7D58B42F6
:100DD00018BF704708BF824270474FF4001C1CEBDD
:100DE000410F38BF1CEB430F01D28B42704770B5E7
:100DF00000F0EEF8922449004FF080514FF000537C
:100E0000FFF738BF51EA030C17D41CF5801F58BFF9
:100E1000BCF5801F00F10680994218BF704708BFDB
:100E20009042704707D711F5801F58BF13F5801FF8
:100E300019D499427047894270471CF5801F08D524
:100E4000BCF5801FF7D58B4218BF704708BF8242A0
:100E500070474FF4001C1CEB410F38BF1CEB430FD5
:100E600001D28B42704770B500F0B2F8922449006D
:100E70004FF000514FF08053FFF7FCBE70B5DFF824
:100E800048C11CEA111E1EBF1CEA13159EEA0C0F76
:100E900095EA0C0F00F06F8081EA03044EEAD47EDD
:100EA000AE4421EA4C1123EA4C1341F4801143F47F
:100EB0008013AEF17F7EA1FB024CA0FB03653619C7
:100EC00055EB0C05A1FB034C4CF10003A0FB021CED
:100ED00016EB0C06654153F10003094218BF46F0BA
:100EE000010613F4007F0BD14FEA03314FEA0530BE
:100EF00041EA155140EA165034036FF003020AE04C
:100F00004FEAC3214FEAC52041EA555140EA565005
:100F1000F4026FF0020202EB2E4201EB025585EA69
:100F2000CE710AD05FEA440C18BF24F0004450F19F
:100F3000000041F1000120EAD47040F2FE7C6245DD
:100F400000D270BDA84214BF4FF080444FF040441F
:100F5000002E08BF0024BEF1806FA8BFA1F1C041E0
:100F6000BDE8704080F2828001F1C04101F0004193
:100F70004FF0000070470CEA13159EEA0C0F18BFE3
:100F800095EA0C0F06D081EA030E4FF000000EF038
:100F9000004170BD00F01CF88900013E00F007B868
:100FA00000F009B84FEA430C5FEA5C5C08D081EAC4
:100FB000030100F05BB84FEA410C5FEA5C5CF6D1DC
:100FC00002494FF0000070470000FF070000F87F63
:100FD0000EF1020E2EF0030E5EF8046B364205D4BD
:100FE000012A43EB030515F5001F12D8012841EB38
:100FF000010C1CF5001F0CD80ED14FEAD17C0CEB74
:101000004C0C0CF1020C15F5001F08BF4CEBD37C07
:1010100004E04FF0080C01E04FEAD37C0CEB4C05E8
:1010200026FA05F606F00706B6F1040C06D20EEB1A
:10103000860CBDE870404CF0010C6047DFE80CF016
:10104000090B02024FF00041A1F500214FF0000012
:1010500070BD19461046012851EB010418BFD4F5A4
:10106000001484BF002001F0004170BD0808A0F505
:1010700000114FEA3101704790EA010F48BF81F03B
:10108000004100F18C81421A3CBF801A89184FEA56
:10109000D052A2EBD1534FF07F4C1CEA410F18BF46
:1010A0009CEA026F00F03B804FF0004C4CEA0020BD
:1010B0004CEA012121FA03FC10EB0C0C1ED202F1C8
:1010C000FF325FEA1C2040EBC25038BF70471CF073
:1010D0007F0F4FEA400C18BFBCF17F4F38BF7047FD
:1010E000C3F12003994008BF20F00100BCF17F4FFD
:1010F00038BF7047A0F1C04000F045B94FEA3C004E
:10110000000A40EBC25028BF1CF0FF0F4FEA400C12
:10111000E6D018BFBCF17F4F38BF7047EAE79CEAC2
:10112000026F05D010EA5C0F08BF00F00040704766
:1011300010B500F0E2F800BF64FBBE3E10B5FFF74B
:10114000A5FD0CBF0120002010BD10B5FFF79EFDCE
:1011500014BF0120002010BD10B5FFF717FE8CBF93
:101160000120002010BD10B5FFF710FE2CBF01209C
:10117000002010BD10B5FFF745FE94BF01200020F0
:1011800010BD10B5FFF73EFE34BF0120002010BD9A
:1011900041000B0ED3F19E0208D950F400034FEA30
:1011A000032323FA02F048BF4042704710B500F015
:1011B000A4F800BF49922480002070476FF00042DD
:1011C00082EA20007047000010F0004148BF404212
:1011D000B0FA80F310FA03F2C3F19D030BD051EA89
:1011E000C35101EB1220530638BF704700F10100D4
:1011F00008BF20F0010070474FF47F0C1CEAD012AA
:101200001EBF1CEAD11392EA0C0F93EA0C0F00F0F8
:10121000478090EA010F48BF42F480724FF0004CC3
:101220004CEA00204CEA012102EB0302A0FB01136F
:10123000A2F50002002918BF43F001035B0028BF9C
:101240004FEA330342EB22425FEA132C4CEBC250CD
:101250002EBFBCEB436FB2F57C0F70474FEA036CB7
:10126000BCF1004F08BF20F00100B2F57C0F38BF81
:1012700070470BD582F0FF0212F5803FC8BF704760
:1012800000F1C040D8BF00F00040704700F5000CEE
:101290005FEA4C0C48BF7047B0F1C04000F073B833
:1012A0000CEAD11390EA010F48BF42F48072624504
:1012B00038BF634504D280EA010000F00040704767
:1012C00010B500F01AF800BF8900013E00F007B821
:1012D00000F009B85FEA410C5FEA1C6C08D080EAB4
:1012E000010000F050B85FEA400C5FEA1C6CF6D1D8
:1012F0004FF00040A0F5800070470EF1020E2EF076
:10130000030E5EF8044B244204D44FEA4102B2F1CA
:101310007F4F11D84FEA4003B3F17F4F0CD80ED165
:101320004FEAD07C0CEB4C0C0CF1020CB2F17F4F6D
:1013300008BF4CEBD17C04E04FF0080C01E04FEA11
:10134000D17C0CEB4C0324FA03F404F00704B4F151
:10135000040C06D20EEB840CBDE810404CF0010CDE
:101360006047DFE80CF0070802024FF00040A0F5EC
:10137000800010BD0846420018BFD2F1807288BFBD
:1013800000F0004010BDFF2141EAD050C005704779
:1013900090EA010F48BF81F000413FF574AE421A58
:1013A00004D882F00042A0EB020011444FEAD05270
:1013B000A2EBD1534FF07F4C1CEA410F18BF9CEABF
:1013C000026F4AD04FF0004C4CEA00204CEA012159
:1013D00021FA03FCB0EB0C0C0FD412F0FE0F36D048
:1013E0005FEA4C001DD5001240EBC25038BF704779
:1013F0001CF03F0F18BF70470BE05FEA1C20A2F102
:10140000010240EBC25038BF70471CF07F0F18BF7D
:101410007047C3F12003994014BF401E20F0010023
:1014200070474FEA1223800808BF7047B0FA80FC6B
:10143000A2EB0C02CCF1280C60FA0CF093EA122F0C
:1014400004BF00EBC25070474FEAC3707047130AE5
:101450005FEADC1008BF7047F6E79CEA026F04D031
:1014600010EA5C0F08BF0020704710B5FFF745FF7A
:1014700040DFF63E81F00040704700009C140008F9
:10148000000000200C00000028010008A81400083B
:1014900010000020B8060000440100080000A04130
:0814A0000AD7A33B6F12033BC6
:040000050800018965
:00000001FF
